{
  "contractName": "SupplyChain",
  "abi": [
    {
      "inputs": [],
      "payable": false,
      "stateMutability": "nonpayable",
      "type": "constructor"
    },
    {
      "anonymous": false,
      "inputs": [
        {
          "indexed": false,
          "name": "_itemIdCount",
          "type": "uint256"
        }
      ],
      "name": "LogForSale",
      "type": "event"
    },
    {
      "anonymous": false,
      "inputs": [
        {
          "indexed": false,
          "name": "_itemIdCount",
          "type": "uint256"
        }
      ],
      "name": "LogSold",
      "type": "event"
    },
    {
      "anonymous": false,
      "inputs": [
        {
          "indexed": false,
          "name": "_itemIdCount",
          "type": "uint256"
        }
      ],
      "name": "LogShipped",
      "type": "event"
    },
    {
      "anonymous": false,
      "inputs": [
        {
          "indexed": false,
          "name": "_itemIdCount",
          "type": "uint256"
        }
      ],
      "name": "LogReceived",
      "type": "event"
    },
    {
      "constant": false,
      "inputs": [
        {
          "name": "_name",
          "type": "string"
        },
        {
          "name": "_price",
          "type": "uint256"
        }
      ],
      "name": "addItem",
      "outputs": [
        {
          "name": "",
          "type": "bool"
        }
      ],
      "payable": true,
      "stateMutability": "payable",
      "type": "function"
    },
    {
      "constant": false,
      "inputs": [
        {
          "name": "_itemId",
          "type": "uint256"
        }
      ],
      "name": "buyItem",
      "outputs": [
        {
          "name": "",
          "type": "bool"
        }
      ],
      "payable": true,
      "stateMutability": "payable",
      "type": "function"
    },
    {
      "constant": false,
      "inputs": [
        {
          "name": "_itemId",
          "type": "uint256"
        }
      ],
      "name": "shipItem",
      "outputs": [],
      "payable": false,
      "stateMutability": "nonpayable",
      "type": "function"
    },
    {
      "constant": false,
      "inputs": [
        {
          "name": "_itemId",
          "type": "uint256"
        }
      ],
      "name": "receiveItem",
      "outputs": [],
      "payable": false,
      "stateMutability": "nonpayable",
      "type": "function"
    },
    {
      "constant": true,
      "inputs": [
        {
          "name": "_itemId",
          "type": "uint256"
        }
      ],
      "name": "getItem",
      "outputs": [
        {
          "name": "name",
          "type": "string"
        },
        {
          "name": "price",
          "type": "uint256"
        },
        {
          "name": "state",
          "type": "uint8"
        },
        {
          "name": "seller",
          "type": "address"
        },
        {
          "name": "buyer",
          "type": "address"
        }
      ],
      "payable": false,
      "stateMutability": "view",
      "type": "function"
    },
    {
      "constant": false,
      "inputs": [],
      "name": "withdrawFunds",
      "outputs": [
        {
          "name": "",
          "type": "bool"
        }
      ],
      "payable": true,
      "stateMutability": "payable",
      "type": "function"
    }
  ],
  "bytecode": "0x608060405234801561001057600080fd5b50336000806101000a81548173ffffffffffffffffffffffffffffffffffffffff021916908373ffffffffffffffffffffffffffffffffffffffff1602179055506000600181905550610d04806100686000396000f3fe6080604052600436106100555760003560e01c806324600fc31461005a5780633129e7731461007c57806362d6bbdf146101b2578063a26be9991461028f578063e7fb74c7146102ca578063f61c899a14610310575b600080fd5b61006261034b565b604051808215151515815260200191505060405180910390f35b34801561008857600080fd5b506100b56004803603602081101561009f57600080fd5b8101908080359060200190929190505050610432565b60405180806020018681526020018560038111156100cf57fe5b60ff1681526020018473ffffffffffffffffffffffffffffffffffffffff1673ffffffffffffffffffffffffffffffffffffffff1681526020018373ffffffffffffffffffffffffffffffffffffffff1673ffffffffffffffffffffffffffffffffffffffff168152602001828103825287818151815260200191508051906020019080838360005b83811015610173578082015181840152602081019050610158565b50505050905090810190601f1680156101a05780820380516001836020036101000a031916815260200191505b50965050505050505060405180910390f35b610275600480360360408110156101c857600080fd5b81019080803590602001906401000000008111156101e557600080fd5b8201836020820111156101f757600080fd5b8035906020019184600183028401116401000000008311171561021957600080fd5b91908080601f016020809104026020016040519081016040528093929190818152602001838380828437600081840152601f19601f820116905080830192505050505050509192919290803590602001909291905050506105b4565b604051808215151515815260200191505060405180910390f35b34801561029b57600080fd5b506102c8600480360360208110156102b257600080fd5b8101908080359060200190929190505050610770565b005b6102f6600480360360208110156102e057600080fd5b810190808035906020019092919050505061089c565b604051808215151515815260200191505060405180910390f35b34801561031c57600080fd5b506103496004803603602081101561033357600080fd5b8101908080359060200190929190505050610b08565b005b60008060009054906101000a900473ffffffffffffffffffffffffffffffffffffffff1673ffffffffffffffffffffffffffffffffffffffff163373ffffffffffffffffffffffffffffffffffffffff16146103a657600080fd5b60003073ffffffffffffffffffffffffffffffffffffffff163190506000809054906101000a900473ffffffffffffffffffffffffffffffffffffffff1673ffffffffffffffffffffffffffffffffffffffff166108fc829081150290604051600060405180830381858888f19350505050158015610429573d6000803e3d6000fd5b50600191505090565b6060600080600080600260008781526020019081526020016000206000018054600181600116156101000203166002900480601f0160208091040260200160405190810160405280929190818152602001828054600181600116156101000203166002900480156104e45780601f106104b9576101008083540402835291602001916104e4565b820191906000526020600020905b8154815290600101906020018083116104c757829003601f168201915b50505050509450600260008781526020019081526020016000206001015493506002600087815260200190815260200160002060020160009054906101000a900460ff1692506002600087815260200190815260200160002060020160019054906101000a900473ffffffffffffffffffffffffffffffffffffffff1691506002600087815260200190815260200160002060030160009054906101000a900473ffffffffffffffffffffffffffffffffffffffff16905084848484849450945094509450945091939590929450565b600066038d7ea4c68000803410156105cb57600080fd5b7f4627c48065af2a9648cbecdd4b9da340c00e501243cd49a8a71c30c987e8b7616001546040518082815260200191505060405180910390a16040518060a001604052808581526020018481526020016000600381111561062857fe5b81526020013373ffffffffffffffffffffffffffffffffffffffff168152602001600073ffffffffffffffffffffffffffffffffffffffff168152506002600060015481526020019081526020016000206000820151816000019080519060200190610695929190610c33565b506020820151816001015560408201518160020160006101000a81548160ff021916908360038111156106c457fe5b021790555060608201518160020160016101000a81548173ffffffffffffffffffffffffffffffffffffffff021916908373ffffffffffffffffffffffffffffffffffffffff16021790555060808201518160030160006101000a81548173ffffffffffffffffffffffffffffffffffffffff021916908373ffffffffffffffffffffffffffffffffffffffff1602179055509050506001805401600181905550600191505092915050565b80600280600381111561077f57fe5b6002600084815260200190815260200160002060020160009054906101000a900460ff1660038111156107ae57fe5b146107b857600080fd5b6002600084815260200190815260200160002060030160009054906101000a900473ffffffffffffffffffffffffffffffffffffffff168073ffffffffffffffffffffffffffffffffffffffff163373ffffffffffffffffffffffffffffffffffffffff161461082757600080fd5b7f5a98827d06afe0e04647b3aed26f1ffb77171ad9ac41603c4ef623a6638798c1846040518082815260200191505060405180910390a160036002600086815260200190815260200160002060020160006101000a81548160ff0219169083600381111561089157fe5b021790555050505050565b60008160008060038111156108ad57fe5b6002600084815260200190815260200160002060020160009054906101000a900460ff1660038111156108dc57fe5b146108e657600080fd5b60026000858152602001908152602001600020600101548034101561090a57600080fd5b7fe64ca8c671e48636f85f3008c1dd538e36bfa74fb6f2790b56b72fcc33b879ef856040518082815260200191505060405180910390a16002600086815260200190815260200160002060020160019054906101000a900473ffffffffffffffffffffffffffffffffffffffff1673ffffffffffffffffffffffffffffffffffffffff166108fc60026000888152602001908152602001600020600101549081150290604051600060405180830381858888f193505050501580156109d3573d6000803e3d6000fd5b50336002600087815260200190815260200160002060030160006101000a81548173ffffffffffffffffffffffffffffffffffffffff021916908373ffffffffffffffffffffffffffffffffffffffff16021790555060016002600087815260200190815260200160002060020160006101000a81548160ff02191690836003811115610a5c57fe5b021790555060006002600087815260200190815260200160002060010154340390506002600087815260200190815260200160002060030160009054906101000a900473ffffffffffffffffffffffffffffffffffffffff1673ffffffffffffffffffffffffffffffffffffffff166108fc829081150290604051600060405180830381858888f19350505050158015610afa573d6000803e3d6000fd5b506001945050505050919050565b806001806003811115610b1757fe5b6002600084815260200190815260200160002060020160009054906101000a900460ff166003811115610b4657fe5b14610b5057600080fd5b6002600084815260200190815260200160002060020160019054906101000a900473ffffffffffffffffffffffffffffffffffffffff168073ffffffffffffffffffffffffffffffffffffffff163373ffffffffffffffffffffffffffffffffffffffff1614610bbf57600080fd5b7feaf695929fec8154f0eafe7248c0e16855eb9ad09e623be92f669e544d53e856846040518082815260200191505060405180910390a1600280600086815260200190815260200160002060020160006101000a81548160ff02191690836003811115610c2857fe5b021790555050505050565b828054600181600116156101000203166002900490600052602060002090601f016020900481019282601f10610c7457805160ff1916838001178555610ca2565b82800160010185558215610ca2579182015b82811115610ca1578251825591602001919060010190610c86565b5b509050610caf9190610cb3565b5090565b610cd591905b80821115610cd1576000816000905550600101610cb9565b5090565b9056fea165627a7a72305820a453670c77ea01bc2fac8c69b6e8c203247a632dea8a08ef0ef05a41c51c85f20029",
  "source": "// Implement the smart contract SupplyChain following the provided instructions.\n// Look at the tests in SupplyChain.test.js and run 'truffle test' to be sure that your contract is working properly.\n// Only this file (SupplyChain.sol) should be modified, otherwise your assignment submission may be disqualified.\n\npragma solidity ^0.5.0;\n\ncontract SupplyChain {\n  \n  address payable owner;\n\n  // Create a variable named 'itemIdCount' to store the number of items and also be used as reference for the next itemId.\n  uint itemIdCount;\n\n  constructor() public {\n    owner = msg.sender;\n    itemIdCount = 0;\n  }\n\n  // Create an enumerated type variable named 'State' to list the possible states of an item (in this order): 'ForSale', 'Sold', 'Shipped' and 'Received'.\n  enum State {ForSale, Sold, Shipped, Received }\n\n  // Create a struct named 'Item' containing the following members (in this order): 'name', 'price', 'state', 'seller' and 'buyer'.\n  struct Item {\n    string name;\n    uint price;\n    State state;\n    address payable seller;\n    address payable buyer;\n  }\n\n  // Create a variable named 'items' to map itemIds to Items.\n    mapping (uint => Item) items;\n\n  // Create an event to log all state changes for each item.\n    event LogForSale(uint _itemIdCount);\n    event LogSold(uint _itemIdCount);\n    event LogShipped(uint _itemIdCount);\n    event LogReceived(uint _itemIdCount);\n\n  // Create a modifier named 'onlyOwner' where only the contract owner can proceed with the execution.\n    modifier onlyOwner() {require(msg.sender == owner); _;}\n  // Create a modifier named 'checkState' where the execution can only proceed if the respective Item of a given itemId is in a specific state.\n    modifier checkState(uint _itemId, State _state) {require(items[_itemId].state == _state); _;}\n  // Create a modifier named 'checkCaller' where only the buyer or the seller (depends on the function) of an Item can proceed with the execution.\n    modifier checkCaller(address _requiredCaller) {require(msg.sender == _requiredCaller); _;}\n  // Create a modifier named 'checkValue' where the execution can only proceed if the caller sent enough Ether to pay for a specific Item or fee.\n    modifier checkValue(uint _value) {require(msg.value >= _value); _;}\n\n  // Create a function named 'addItem' that allows anyone to add a new Item by paying a fee of 1 finney. Any overpayment amount should be returned to the caller. All struct members should be mandatory except the buyer.\n    function addItem(string memory _name, uint _price) public payable checkValue(1 finney) returns (bool) {\n      emit LogForSale(itemIdCount);\n      items[itemIdCount] = Item({name: _name, price: _price, state: State.ForSale, seller: msg.sender, buyer: address(0)});\n      itemIdCount = itemIdCount + 1;\n      return true;\n    }\n  // Create a function named 'buyItem' that allows anyone to buy a specific Item by paying its price. The price amount should be transferred to the seller and any overpayment amount should be returned to the buyer.\n  function buyItem(uint _itemId) public payable checkState(_itemId, State.ForSale) checkValue(items[_itemId].price) returns (bool) {\n    emit LogSold(_itemId);\n    items[_itemId].seller.transfer(items[_itemId].price);\n    items[_itemId].buyer = msg.sender;\n    items[_itemId].state = State.Sold;\n    uint refundAmount = msg.value - items[_itemId].price;\n    items[_itemId].buyer.transfer(refundAmount);\n    return true;\n  }\n  // Create a function named 'shipItem' that allows the seller of a specific Item to record that it has been shipped.\n  function shipItem(uint _itemId) public checkState(_itemId, State.Sold) checkCaller(items[_itemId].seller) {\n    emit LogShipped(_itemId);\n    items[_itemId].state = State.Shipped;\n  }\n  // Create a function named 'receiveItem' that allows the buyer of a specific Item to record that it has been received.\n  function receiveItem(uint _itemId) public checkState(_itemId, State.Shipped) checkCaller(items[_itemId].buyer) {\n    emit LogReceived(_itemId);\n    items[_itemId].state = State.Received;\n  }\n  // Create a function named 'getItem' that allows anyone to get all the information of a specific Item in the same order of the struct Item.\n  function getItem(uint _itemId) public view returns (string memory name, uint price, State state, address seller, address buyer) {\n    name = items[_itemId].name;\n    price = items[_itemId].price;\n    state = items[_itemId].state;\n    seller = items[_itemId].seller;\n    buyer = items[_itemId].buyer;\n    return (name, price, state, seller, buyer);\n  }\n  // Create a function named 'withdrawFunds' that allows the contract owner to withdraw all the available funds.\n  function withdrawFunds() public payable onlyOwner() returns (bool) {\n    uint256 balance = address(this).balance;\n    owner.transfer(balance);\n    return true;\n  }\n}\n",
  "sourcePath": "/Users/patrik/Documents/GitHub/supply-chain-DiodaPatr/contracts/SupplyChain.sol",
  "compiler": {
    "name": "solc",
    "version": "0.5.8+commit.23d335f2.Emscripten.clang"
  },
  "schemaVersion": "3.0.15",
  "updatedAt": "2019-09-05T17:13:36.025Z",
  "devdoc": {
    "methods": {}
  },
  "userdoc": {
    "methods": {}
  }
}